:03000000020800F3
:0C080000787FE4F6D8FD758115020847EA
:0C09DA000A0A3F065B4F666D7D077F6FC9
:1008F800E51475F00A84FFE51475F00A84ADF0126A
:1009080009987F011209B37F057E0012091F7F0332
:070918001209B37F057E0008
:10091F00D3EF9400EE940040217D0C7C007BE87AAD
:10092F0003EB1B70011AEB4A70F7ED1D70011CED04
:0A093F004C70EAEF1F70D91E80D63D
:01094900228B
:0F098900E51475F00A84FFE51475F00A84ADF0EB
:10099800740A2FF8E6F590C2A2D2A2C2A2740A2D58
:0B09A800F8E6F590C2A3D2A3C2A32280
:1009B300EF14600F14601114601324037018759002
:1009C30009800D75901280087590248003E4F590DA
:0709D300C2A4D2A4C2A422B9
:10088C00D2AFD2A8D28875140A120989E4FF1209D2
:10089C00B37F0A7E0012091FE51460091514E514D4
:1008AC00C3940050E47514051208F8E5146009159A
:1008BC0014E514C3940050F075140A1209897F02D0
:1008CC001209B37F0A7E0012091FE5146009151482
:1008DC00E514C3940050E4751405E514C39400406A
:0C08EC00A51208F8E514609E151480EEBB
:0300030002094AA5
:10094A00C0E0C0F0C0D075D000C000C002C003C073
:10095A0004C005C006C00775140A1208F8E5146039
:10096A00091514E514C3940050F0D007D006D00539
:0F097A00D004D003D002D000D0D0D0F0D0E032E3
:10080C0002088CE493A3F8E493A34003F68001F26E
:10081C0008DFF48029E493A3F85407240CC8C333ED
:10082C00C4540F4420C8834004F456800146F6DFBC
:10083C00E4800B01020408102040809009DAE47E69
:10084C00019360BCA3FF543F30E509541FFEE493B1
:10085C00A360010ECF54C025E060A840B8E493A378
:10086C00FAE493A3F8E493A3C8C582C8CAC583CAA3
:10087C00F0A3C8C582C8CAC583CADFE9DEE780BE5B
:0109E6000010
:00000001FF
